S00B00006D61696E2E61343359
S113C000314000043C4000020D433E402400B01285
S113C01014C63C4000023D4026C60D9C04243E400C
S113C0200000B012D8C50C43B012DAC0B012D6C5A5
S113C030B2400C007201B24010026001B240100024
S113C0406201B2407000640130415C4202020C9310
S113C0500320B01230C03041B240E02E7201B24031
S113C06010026001B24010006201B240700064012D
S113C0703041C2435600C2435700F24081FF57008B
S113C080C2435800F240C8FF5800C2435300F24074
S113C090200053003041D24211025600F2D080FFFA
S113C0A05600D24210025700F2F0F9FF5800C24382
S113C0B05800B24024026001F2D080FF5700D243FE
S113C0C00202304182430602C24301028243040257
S113C0D0C2430002C24302023041B240805A2001EE
S113C0E0C2430202C2435600C2435700F24081FFDA
S113C0F05700C2435800F240C8FF5800C2435300DF
S113C100F24020005300B012AAC182430602C24387
S113C110010282430402C2430002C24302025C429F
S113C12002020C931620B01230C032D2B01286C173
S113C130B012D6C132C20343B01296C05C420202AE
S113C1400C931420B01230C032D232D018004C43B9
S113C1503041B240E02E7201B24010026001B240A0
S113C16010006201B24070006401DF3FB240E02E73
S113C1707201B24010026001B24010006201B2408C
S113C18070006401E13FB24060A4B201B240703873
S113C190B001A2C2B001B2D00300B00130411C42D0
S113C1A0B401B2D00300B0013041C2432600C243FF
S113C1B04100C2432E00C2434200D2D32200D2C364
S113C1C0210030419242B4010802A2C2B001B2D0AF
S113C1D00300B00100130A12091208120712061212
S113C1E005120412318056007E4040003D40C010CC
S113C1F00C413C501600B012C4C55C421102814C83
S113C20006005D421002814D08005E420F02814E1D
S113C2100A005F420E02814F0C005C420D02814C09
S113C2200E005D420C02814D10005E420B02814EF5
S113C23012005F420A02814F140091422002000062
S113C24015421E0291421C02020016421A021742B3
S113C250180218421602194214021A4212025B41D1
S113C26018008143040044436C436E424F4E7B905C
S113C270FEFF63247B901000A5245B93F7237D408D
S113C28016000D510F5D6F4F814F06004D4C7D50D0
S113C29003003DF0FF007E4016000E510D5E6D4D13
S113C2A0814D08004D4C6D523DF0FF000D5E6D4D0B
S113C2B0814D0A004D4C7D5005003DF0FF000D5EA0
S113C2C06D4D814D0C004D4C7D5006003DF0FF003E
S113C2D00D5E6D4D814D0E004D4C7D5007003DF0BF
S113C2E0FF000D5E6D4D814D10004D4C7D500900D9
S113C2F04E4D7D533DF0FF007F4016000F510D5F02
S113C3006D4D814D12007C500A003CF0FF000D4F32
S113C3100D5E6D4D814D1400914304007D403F003E
S113C3204D9C17287D4016000D510D5C6B4D4E4CF5
S113C3306E534F4E7B90FEFF9D235C534D4C7C40CF
S113C34016000C510D5C6E5D4C4E7D403F004D9CC3
S113C350E92F04931124A241200282451E02924136
S113C36002001C0282461A02824718028248160200
S113C37082491402824A12028193040020241E413D
S113C3800600C24E11021F410800C24F10021C4198
S113C3900A00C24C0F021D410C00C24D0E021E4188
S113C3A00E00C24E0D021F411000C24F0C021C4170
S113C3B01200C24C0B021D411400C24D0A0231503E
S113C3C05600F83C4D4C7D5003003DF0FF007E408C
S113C3D016000E510D5E6D4D0D5D0D5D0D5D0D5D17
S113C3E00D5D0D5D0D5D0D5D0F5E6F4F0F5D814F3A
S113C3F000004D4C7D5005003DF0FF000D5E654D85
S113C4000555055505550555055505550555055558
S113C4104D4C6D523DF0FF000D5E6D4D055D4D4C74
S113C4207D5007003DF0FF000D5E6E4D0E5E0E5E0A
S113C4300E5E0E5E0E5E0E5E0E5E0E5E4D4C7D500A
S113C44006003DF0FF007F4016000F510D5F6D4D5B
S113C4500D5E814D02004D4C7D5009003DF0FF0002
S113C4600D5F664D06560656065606560656065681
S113C470065606564D4C7D523DF0FF000D5F6D4D46
S113C480065D4D4C7D500B003DF0FF000D5F674D88
S113C49007570757075707570757075707570757A8
S113C4A04D4C7D500A003DF0FF000D5F6D4D075D62
S113C4B04D4C7D500D003DF0FF000D5F684D085858
S113C4C008580858085808580858085808584D4C2F
S113C4D07D500C003DF0FF000D5F6D4D085D4D4C2F
S113C4E07D500F003DF0FF000D5F694D095909595A
S113C4F00959095909590959095909594D4C7D5086
S113C5000E003DF0FF000D5F6D4D095D4E4C7E50F9
S113C51011003EF0FF004D4C7D5010003DF0FF0037
S113C5200D5F7C5012003CF0FF000E5F6A4E0A5A09
S113C5300A5A0A5A0A5A0A5A0A5A0A5A0A5A6D4D81
S113C5400A5D5443EB3E92C3620100130D120C12B8
S113C550925306021C4206027D4063000D9C0A2C85
S113C5605C4201020C931924C2430102D2C321008C
S113C57082430602925304021C4204027D400900D5
S113C5800D9C042CD24300028243040292532202E3
S113C59092C364013C413D410013D2430102D2D312
S113C5A02100E63FD2C30000D2C30200B240805A49
S113C5B02001001334413541364137413841394176
S113C5C03A4130410F4C0E5D0D9E01203041FF4D2C
S113C5D000001F53F93FFF3F0A1209120F4D0F5E6F
S113C5E00D9C022C0C9F07280E4C0D9F0A24FE4D17
S113C5F000001E53FA3F094E39E34D433D53099D54
S113C6000120DD3F0B4E0B5D0B5C0A4F0A5DEB4ACC
S113C6100000F43F0E5C0F4C0F9E012030411F536D
S109C620CF4DFFFFF93FBE
S105FFEAC4C18C
S105FFF04CC5FA
S105FFF246C5FE
S105FFF4A4C59E
S105FFFE00C03D
S903C0003C
